:100000000C9434000C943E000C943E000C943E0082
:100010000C943E000C943E000C943E000C943E0068
:100020000C943E000C943E000C943E000C943E0058
:100030000C943E000C943E000C943E000C943E0048
:100040000C943E000C943E000C943E000C943E0038
:100050000C943E000C943E000C943E000C943E0028
:100060000C943E000C943E0011241FBECFEFD8E04C
:10007000DEBFCDBF0E9454000C9462020C940000BD
:100080001092C50087E68093C40088E18093C10088
:100090008EE08093C2000895E0ECF0E0908195FF3F
:1000A000FDCF8093C6000895CF93DF93CDB7DEB721
:1000B000C754D1400FB6F894DEBF0FBECDBF0E942B
:1000C000400057985F9A7E0126E0E20EF11C8E01F7
:1000D0000A5B1E4FCA5BDE4FE882C654D140C95B43
:1000E000DE4FF882C754D140A12CB12CC12CD12CA9
:1000F0008FEF97EA21E6815090402040E1F700C061
:1001000000001D821C821B821A82198257985F9AF6
:100110008FE99FE00197F1F700C00000579A5F98C0
:100120008FE291E10197F1F700C0000057985F9AC4
:100130008FEE90E00197F1F700C00000F89481E69F
:1001400090E00E944C005F9BFECF8EE690E00E9404
:100150004C005F99FECF83E690E00E944C00A7011F
:10016000CA5BDE4FE881C654D140C95BDE4FF881DF
:10017000C754D14027C08A2D9B2DAC2DBD2D019693
:10018000A11DB11D5F9BFBCF5F9B0CC04A2C5B2C5C
:100190006C2C7D2C2FEF421A520A620A720A5F9968
:1001A000F9CF04C04A2C5B2C6C2C7D2C808391836E
:1001B000A283B38344825582668277823896E017A1
:1001C000F10739F05F9BD7CF8A2D9B2DAC2DBD2D2C
:1001D000DBCF789420E030E0FA01C90133230CF43E
:1001E0000796959587959595879595958795A1E01F
:1001F000B0E0AC0FBD1FA80FB91F6C91660F208037
:100200003180428053806480758086809780261478
:1002100037044804590418F0FD01608308C0E1E088
:10022000F0E0EC0FFD1FE80FF91F616060832F5FA6
:100230003F4F485F5F4F2832310571F6698170E0AA
:10024000762F66278A81682B80E090E00E94670104
:100250002DEC3CEC4CEC5DE30E94CD010E9438019A
:10026000CB010E944C0081E690E00E944C0040CF00
:100270000E94AC0188F09F5798F0B92F9927B75189
:10028000B0F0E1F0660F771F881F991F1AF0BA953A
:10029000C9F714C0B13091F00E94C601B1E00895D1
:1002A0000C94C601672F782F8827B85F39F0B93FC3
:1002B000CCF3869577956795B395D9F73EF49095ED
:1002C0008095709561957F4F8F4F9F4F0895E8946B
:1002D00009C097FB3EF490958095709561957F4F8E
:1002E0008F4F9F4F9923A9F0F92F96E9BB2793953C
:1002F000F695879577956795B795F111F8CFFAF44C
:10030000BB0F11F460FF1BC06F5F7F4F8F4F9F4F7C
:1003100016C0882311F096E911C0772321F09EE8DA
:10032000872F762F05C0662371F096E8862F70E040
:1003300060E02AF09A95660F771F881FDAF7880F1A
:100340009695879597F9089557FD9058440F551F36
:1003500059F05F3F71F04795880F97FB991F61F047
:100360009F3F79F087950895121613061406551FBE
:10037000F2CF4695F1DF08C0161617061806991F2A
:10038000F1CF86957105610508940895E894BB271F
:1003900066277727CB0197F908950E94E0010C9416
:1003A00051020E94430238F00E944A0220F0952335
:1003B00011F00C943A020C94400211240C94C701E1
:1003C0000E94A40170F3959FC1F3950F50E0551F53
:1003D000629FF001729FBB27F00DB11D639FAA279A
:1003E000F00DB11DAA1F649F6627B00DA11D661FE9
:1003F000829F2227B00DA11D621F739FB00DA11D0A
:10040000621F839FA00D611D221F749F3327A00DC3
:10041000611D231F849F600D211D822F762F6A2F5F
:1004200011249F5750409AF0F1F088234AF0EE0FC4
:10043000FF1FBB1F661F771F881F91505040A9F7F1
:100440009E3F510580F00C943A020C94C7015F3F27
:10045000E4F3983ED4F3869577956795B795F7952D
:10046000E7959F5FC1F7FE2B880F911D96958795A5
:1004700097F9089597F99F6780E870E060E0089524
:100480009FEF80EC089500240A94161617061806AC
:100490000906089500240A94121613061406050688
:1004A0000895092E0394000C11F4882352F0BB0F19
:1004B00040F4BF2B11F460FF04C06F5F7F4F8F4F7C
:0804C0009F4F0895F894FFCF4F
:00000001FF
