:100000000C9434000C943E000C943E000C943E0082
:100010000C943E000C943E000C943E000C943E0068
:100020000C943E000C943E000C943E000C943E0058
:100030000C943E000C943E000C943E000C943E0048
:100040000C943E000C943E000C943E000C943E0038
:100050000C943E000C943E000C943E000C943E0028
:100060000C943E000C943E0011241FBECFEFD8E04C
:10007000DEBFCDBF0E9454000C94B1000C94000070
:100080001092C50087E68093C40088E18093C10088
:100090008EE08093C2000895E0ECF0E0908195FF3F
:1000A000FDCF8093C60008950E94400010E8D8E07C
:1000B000C0E02FEF87EA91E6215080409040E1F7C1
:1000C00000C000001AB91BB9EFE9FFE03197F1F762
:1000D00000C000001BB8FAE6FA95F1F700C0F894EA
:1000E0001AB88FE39CE90197F1F700C00000EFE731
:1000F000F2E03197F1F700C000008D2F9C2F2BB15B
:10010000E7ECF0E03197F1F700C000000197B9F794
:100110008D2F9C2F2BB1E7ECF0E03197F1F700C069
:1001200000000197B9F78D2F9C2F2BB1E7ECF0E081
:100130003197F1F700C000000197B9F78D2F9C2F80
:100140002BB1E7ECF0E03197F1F700C00000019728
:10015000B9F7789480E00E944C0080E00E944C0047
:06016000A8CFF894FFCFC8
:00000001FF
