:100000000C9434000C943E000C943E000C943E0082
:100010000C943E000C943E000C943E000C943E0068
:100020000C943E000C943E000C943E000C943E0058
:100030000C943E000C943E000C943E000C943E0048
:100040000C943E000C943E000C943E000C943E0038
:100050000C943E000C943E000C943E000C943E0028
:100060000C943E000C943E0011241FBECFEFD8E04C
:10007000DEBFCDBF0E9440000C945D000C940000D8
:1000800080E82FEF38E09DE3215030409040E1F7C9
:1000900000C000008AB98BB9E9E6F8E13197F1F7C1
:1000A00000C000001BB8E3EFF1E03197F1F700C0AA
:0E00B0000000F8941AB81BB8E4CFF894FFCF04
:00000001FF
