S01B000048756D69646974794D6561737572656D656E742E7372656336
S11300000C9434000C943E000C943E000C943E007E
S11300100C943E000C943E000C943E000C943E0064
S11300200C943E000C943E000C943E000C943E0054
S11300300C943E000C943E000C943E000C943E0044
S11300400C943E000C943E000C943E000C943E0034
S11300500C943E000C943E000C943E000C943E0024
S11300600C943E000C943E0011241FBECFEFD8E048
S1130070DEBFCDBF0E9454000C94ED000C94000030
S11300801092C50087E68093C40088E18093C10084
S11300908EE08093C2000895E0ECF0E0908195FF3B
S11300A0FDCF8093C6000895CF93DF93CDB7DEB71D
S11300B028970FB6F894DEBF0FBECDBF0E94400054
S11300C0579A5F9A6894EE24E3F8F12C8E01075F47
S11300D01F4F2FEF87EA91E6215080409040E1F7CF
S11300E000C000005F9AEFEFF4E32CE0E150F04031
S11300F02040E1F700C0000057985F988FEF99EF18
S1130100E0E081509040E040E1F700C00000F89446
S11301105F9AF5EDFA95F1F70000579A5F9A25E397
S11301202A95F1F700008FE391E00197F1F700C001
S11301300000EFE3F1E03197F1F700C000008E2DED
S11301409F2D2BB1E7ECF0E03197F1F700C00000F0
S11301500197B9F78E2D9F2D2BB1E7ECF0E0319785
S1130160F1F700C000000197B9F78E2D9F2D2BB138
S1130170E7ECF0E03197F1F700C000000197B9F720
S1130180FE0131968BB1881F8827881F819387ECE5
S113019090E00197F1F700C00000E017F10791F734
S11301A0789489810E944C008A810E944C008B8142
S11301B00E944C008C810E944C008D810E944C0056
S11301C08E810E944C008F810E944C0088850E9481
S11101D04C008AE00E944C007CCFF894FFCFD4
S9030000FC
