S01B000048756D69646974794D6561737572656D656E742E7372656336
S11300000C9434000C943E000C943E000C943E007E
S11300100C943E000C943E000C943E000C943E0064
S11300200C943E000C943E000C943E000C943E0054
S11300300C943E000C943E000C943E000C943E0044
S11300400C943E000C943E000C943E000C943E0034
S11300500C943E000C943E000C943E000C943E0024
S11300600C943E000C943E0011241FBECFEFD8E048
S1130070DEBFCDBF0E9483010C94D1010C9400001B
S11300801092C50087E68093C40088E18093C10084
S11300908EE08093C2000895E0ECF0E0908195FF3B
S11300A0FDCF8093C6000895E0ECF0E080818823C2
S11300B0ECF78091C60008956F927F928F929F9281
S11300C0AF92BF92CF92DF92EF92FF920F931F9362
S11300D0CF93DF93CDB7DEB7CF54D1400FB6F894AA
S11300E0DEBF0FBECDBF1D821C821B821A82198205
S11300F057985F9A8FE99FE00197F1F700C00000DD
S1130100579A5F98EFE2F1E13197F1F700C00000F0
S1130110F89457985F9AF5EDFA95F1F700004F9B24
S1130120FECF4F99FECF3E0186E0680E711C7E0122
S11301309AEBE91A9EEFF90A9301C12CD12C00E045
S113014010E028C08C2D9D2DA02FB12F0196A11D4C
S1130150B11D4F9BFBCF4F9B0BC04C2D5D2D602FD2
S1130160712F4F5F5F4F6F4F7F4F4F99FACF04C08E
S11301704C2D5D2D602F712FF90180839183A28313
S1130180B3834483558366837783285F3F4F2E155B
S11301903F0539F04F9BD6CF8C2D9D2DA02FB12F2D
S11301A0DACF789440E050E0D301CA0155230CF42F
S11301B0079695958795959587959595879521E0CB
S11301C030E02C0F3D1F280F391FF9012081220F29
S11301D08D909D90AD90BC9013971496CD90DD902A
S11301E0ED90FC9017978C149D04AE04BF0410F09E
S11301F0208308C0A1E0B0E0AC0FBD1FA80FB91F59
S113020021602C934F5F5F4FF8E06F0E711C4832F2
S1130210510551F6898190E0982F88272A814AE078
S1130220BE016A5B7E4F822B0E949C01CA5BDE4F3B
S11302308881C654D14090E00E944C00C95BDE4FD7
S11302408881C754D14090E00E944C00C85BDE4FC7
S11302508881C854D14090E00E944C00C75BDE4FB7
S11302608881C954D14090E00E944C00C15BDE4FAC
S11302700FB6F894DEBF0FBECDBFDF91CF911F91B3
S11302800F91FF90EF90DF90CF90BF90AF909F9031
S11302908F907F906F900895CF93DF93CDB7DEB7A3
S11302A02A970FB6F894DEBF0FBECDBFEAE7F0E0A1
S11302B0808180648083808186FDFDCF8091780079
S11302C02091790090E04AE0BE016F5F7F4F922B4E
S11302D00E949C01898190E00E944C008A8190E0F8
S11302E00E944C008B8190E00E944C008C8190E035
S11302F00E944C002A960FB6F894DEBF0FBECDBF05
S1130300DF91CF9108950E94400057985F9A109210
S1130310640087E880937A0080E480937C000E94E4
S11303205400813619F0833721F0F9CF0E945C0024
S1130330F6CF0E944C01F3CFBB274A3031F4992306
S113034022F4BDE2909581959F4F0C94A801BB27A0
S1130350FB015527AA27880F991FAA1FA41710F07D
S1130360A41B83955051B9F7A05DAA3308F0A95D89
S1130370A193009779F7B111B1931192CB010C9429
S1130380C101DC01FC01672F71917723E1F73297FA
S113039004C07C916D9370836291AE17BF07C8F35C
S10903A00895F894FFCF5C
S9030000FC
