:100000000C9434000C943E000C943E000C943E0082
:100010000C943E000C943E000C943E000C943E0068
:100020000C943E000C943E000C943E000C943E0058
:100030000C943E000C943E000C943E000C943E0048
:100040000C943E000C943E000C943E000C943E0038
:100050000C943E000C943E000C943E000C943E0028
:100060000C943E000C943E0011241FBECFEFD8E04C
:10007000DEBFCDBF0E9454000C94CC000C94000055
:100080001092C50087E68093C40088E18093C10088
:100090008EE08093C2000895E0ECF0E0908195FF3F
:1000A000FDCF8093C60008950E944000579A5F9A42
:1000B00008E010E02FEF87EA91E621508040904061
:1000C000E1F700C000005F9AEFEFF4E32CE0E150AD
:1000D000F0402040E1F700C0000057985F988FEF94
:1000E00099EFE0E081509040E040E1F700C000006F
:1000F000F8945F9AF5EDFA95F1F70000579A5F9A38
:1001000025E32A95F1F700008FE391E00197F1F7DD
:1001100000C00000EFE3F1E03197F1F700C000000C
:10012000202F312F8BB18078D82B87EC90E001976E
:10013000F1F700C0000021503109A1F7202F312F25
:100140008BB18078C82BE7ECF0E03197F1F700C075
:10015000000021503109A1F7802F912F2BB1E7EC3E
:10016000F0E03197F1F700C000000197B9F7802F58
:10017000912F2BB1E7ECF0E03197F1F700C00000D0
:100180000197B9F7789480E38C0F0E944C0080E3CC
:0C0190008D0F0E944C008ECFF894FFCF22
:00000001FF
