S01B000048756D69646974794D6561737572656D656E742E7372656336
S11300000C9434000C943E000C943E000C943E007E
S11300100C943E000C943E000C943E000C943E0064
S11300200C943E000C943E000C943E000C943E0054
S11300300C943E000C943E000C943E000C943E0044
S11300400C943E000C943E000C943E000C943E0034
S11300500C943E000C943E000C943E000C943E0024
S11300600C943E000C943E0011241FBECFEFD8E048
S1130070DEBFCDBF0E9454000C9419010C94000003
S11300801092C50087E68093C40088E18093C10084
S11300908EE08093C2000895E0ECF0E0908195FF3B
S11300A0FDCF8093C6000895CF93DF93CDB7DEB71D
S11300B0C754D1400FB6F894DEBF0FBECDBF0E9427
S11300C0400056985E9A7E0126E0E20EF11C8E01F5
S11300D00A5B1E4FCA5BDE4FE882C654D140C95B3F
S11300E0DE4FF882C754D140A12CB12CC12CD12CA5
S11300F08FEF97EA21E6815090402040E1F700C05D
S113010000001D821C821B821A82198256985E9AF4
S11301108FE99FE00197F1F700C00000569A5E98BE
S11301208FE291E10197F1F700C00000F89456982E
S11301305E9A95ED9A95F1F700004E9BFECF4E998D
S1130140FECFA701CA5BDE4FE881C654D140C95B2C
S1130150DE4FF881C754D14027C08A2D9B2DAC2D8A
S1130160BD2D0196A11DB11D4E9BFBCF4E9B0CC016
S11301704A2C5B2C6C2C7D2C2FEF421A520A620AFB
S1130180720A4E99F9CF04C04A2C5B2C6C2C7D2C3E
S113019080839183A283B38344825582668277826B
S11301A03896E017F10739F04E9BD7CF8A2D9B2D57
S11301B0AC2DBD2DDBCF789420E030E0FA01C901ED
S11301C033230CF407969595879595958795959582
S11301D08795A1E0B0E0AC0FBD1FA80FB91F6C91CB
S11301E0660F2080318042805380648075808680D1
S11301F09780261437044804590418F0FD016083DD
S113020008C0E1E0F0E0EC0FFD1FE80FF91F6160AA
S113021060832F5F3F4F485F5F4F2832310571F68F
S1130220898190E00E944C008A8190E00E944C00F9
S10902305FCFF894FFCF3C
S9030000FC
